:020000040800F2
:100000008805002001010008F9170008F117000811
:10001000F5170008C5020008DD1800080000000000
:10002000000000000000000000000000D1180008DF
:10003000C902000800000000FD170008D5180008DC
:100040001B0100081B0100081B0100081B01000820
:100050001B0100081B0100081B0100081B01000810
:100060001B0100081B0100081B0100081B01000800
:100070001B0100081B0100081B0100081B010008F0
:100080001B0100081B0100081B0100081B010008E0
:100090001B0100081B0100081B0100081B010008D0
:1000A0001B0100081B0100081B0100081B010008C0
:1000B0001B0100081B0100081B0100081B010008B0
:1000C0001B0100081B0100081B0100081B010008A0
:1000D0001B0100081B0100081B0100081B01000890
:1000E0001B0100081B0100081B010008DFF80CD0F1
:1000F00000F0D6F8004800471D1E000888050020C3
:100100000648804706480047FEE7FEE7FEE7FEE7B1
:10011000FEE7FEE7FEE7FEE7FEE7FEE7D918000888
:10012000ED0000082DE9F05F0546002092469B4651
:1001300088460646814640241BE0284641464746FD
:10014000224600F065F853465A46C01A914110D332
:1001500011461846224600F04CF82D1A67EB0108AC
:100160004F4622460120002100F043F817EB00091A
:100170004E41201EA4F10104DFDC484631462A46E8
:100180004346BDE8F09F421C10F8011B0029FBD13B
:10019000801A704796230022114600F052B820F0D2
:1001A0000040C10DC0F3160040F400007F2901DAC1
:1001B00000207047962903DCC1F19601C8407047C2
:1001C00096398840704730B50B4601460020202202
:1001D000012409E021FA02F59D4205D303FA02F554
:1001E000491B04FA02F52844151EA2F10102F1DCB4
:1001F00030BD202A04DB203A00FA02F100207047CB
:100200009140C2F1200320FA03F319439040704754
:10021000202A04DB203A21FA02F00021704721FA5B
:1002200002F3D040C2F120029140084319467047C2
:100230000029A8BF7047401C490008BF20F00100FA
:10024000704710B4B0FA80FC00FA0CF050EA0104D8
:1002500004BF10BC704749B1CCF1200421FA04F46A
:1002600011FA0CF118BF012121430843A3EB0C0143
:10027000CB1D4FEA00614FEA102042BF002010BCA6
:10028000704700EBC35010440029A4BF10BC704756
:10029000401C490008BF20F0010010BC704700005E
:1002A000064C074D06E0E06840F0010394E80700C3
:1002B00098471034AC42F6D3FFF71CFF8C3400088B
:1002C000AC340008FEE7000070470000B0B50446FB
:1002D00000F01EF9054640F20400C2F2000000786A
:1002E000611C18BF044400BF00F012F9401BA0427B
:1002F000FAD3B0BD2DE9F04F82B00E68002E00F0A9
:10030000F88040F20C4C40F2004E41F20042C4F240
:10031000010CC4F2010EC4F20102042700240123DF
:100320004FF0000A4FF00009904208BF03270097E2
:1003300041E0012704F00C030F229A402BEA02024D
:1003400007FA03F34FEA9A051A4346F825204E6848
:10035000F203DEF8002054BF22EA080242EA080253
:10036000CEF80020DEF80420B30354BF22EA0802CE
:1003700042EA0802CEF80420F302DEF8082054BF57
:1003800022EA080242EA0802B302CEF80820DCF8AA
:1003900000204FF0010354BF22EA080242EA08029B
:1003A000CCF800200E680AF1010A36FA0AF204F1CC
:1003B000040400F09E8003FA0AFB16EA0B08F1D051
:1003C0004E684FF6FF72C1F21002964210DC122EF8
:1003D00050D8DFE806F0330A41454F4F4F4F4F4F9B
:1003E0004F4F4F4F4F4F4F484C00D1F80C9041E0CA
:1003F0004FF6FF72C1F2210296420FDC0022C1F2D9
:10040000110296421AD00022C1F21202964215D071
:100410000022C1F22102964210D02BE00022C1F24C
:10042000220296420AD00022C1F23102964205D041
:100430000022C1F2320296421CD100BF8A6842B14A
:10044000012A14BFC0F814B0C0F810B04FF008096A
:1004500010E04FF004090DE0CA6802F1080909E054
:100460004FF0000906E0CA6802F1040902E0CA6818
:1004700002F10C0922460646B8F5807F24BF203AD7
:10048000043637680F25954027EA050509FA02F278
:100490002A433260CA79D2067FF584AF41F218034D
:1004A000C4F202031A68AEF57E7642F001021A60C9
:1004B0001A6802F001020192019A2AF0030256F82A
:1004C00002B040F60002C4F2010290420FD040F6A2
:1004D0000042C4F2010290423FF42BAF41F200020D
:1004E000C4F20102009F904208BF022722E70027C2
:1004F00020E702B0BDE8F08F8068084018BF0120F7
:1005000070470000002A08BF09040161704700001D
:1005100040F28410C2F200000068704740F204000C
:1005200040F28411C2F20000C2F2000100780A68B1
:10053000104408607047000080B542F20000C4F229
:100540000200016841F010010160032000F07EF814
:10055000002000F005F800F02BF8002080BD00001E
:10056000B0B540F20402C2F2000240F2000112787B
:10057000C2F200014FF47A730968B3FBF2F2044649
:10058000B1FBF2F1084600F01BFE0F2C4FF0010505
:100590000CD858B94FF0FF3021460022002500F05A
:1005A00029F840F20800C2F2000004602846B0BDFD
:1005B00082B041F21800C4F202000168022241F048
:1005C00001010160016801F0010101910199416897
:1005D00041F080514160406800F0805000900098E8
:1005E0000420C4F20100016862F31A61016002B0E4
:1005F0007047000010B54EF60C5CCEF2000CDCF833
:100600000030C3F3022E8EF00704042C28BF04240C
:10061000BEF103034FF0FF3E0EFA04F438BF00238F
:10062000A14399400EFA03F39A43114300F160424B
:1006300000F00F03090102F56442043B6344002803
:1006400048BF03F10C02117010BD00004EF60C51B2
:10065000CEF200010A684FF6FF031A4060F30A2247
:1006600042F0806040F0FD70086070472DE9F04373
:1006700081B0002800F0858042F20008C4F2020830
:100680000446D8F800000D4600F0070088420CD25E
:10069000D8F8000020F007002843C8F80000D8F878
:1006A000000000F00700A8426BD1206841F2040965
:1006B0008107C4F2020917D5410705D5D9F8001002
:1006C00041F4E061C9F80010010705D5D9F8001020
:1006D00041F46051C9F80010D9F80010A26821F067
:1006E000F0011143C9F80010C00741D1D8F800004B
:1006F00000F00700A8420CD9D8F8000020F007004D
:100700002843C8F80000D8F8000000F00700A8420D
:1007100037D12068410707D5D9F80010E26821F4E5
:10072000E0611143C9F80010000708D5D9F80000AE
:10073000216920F4605040EAC100C9F80000D9F8EE
:10074000002002F00C00082841F20020C0F27A00DC
:100750004ED143F24143C2F38341C0F60003595CDA
:10076000D20339D440F60010C0F23D0048433FE0C8
:100770006068022809D0012829D159F8041C89038E
:1007800007D4012001B0BDE8F08359F8041C8901A9
:10079000F7D5D9F8001021F003010843C9F800008B
:1007A000FFF7B6FE064641F2883700BFD9F80000D1
:1007B000616800F00C00B0EB810F97D0FFF7A8FE46
:1007C000801BB842F2D9032001B0BDE8F08359F88C
:1007D000041C8907D5D5DCE7D9F8002043F216437D
:1007E000C2F34042C0F600039A5C4843B0FBF2F00B
:1007F000D9F8001043F21842C1F30311C0F6000209
:10080000515C40F2000220FA01F140F20800C2F20D
:1008100000000068C2F200021160FFF7A1FE002094
:1008200001B0BDE8F083000040F2000041F2040195
:10083000C2F20000C4F202010068096843F22842D3
:10084000C1F30221C0F60002515CC84070470000AD
:1008500040F2000041F20401C2F20000C4F20201C1
:100860000068096843F22842C1F3C221C0F60002C1
:10087000515CC840704700002DE9F04182B000286B
:1008800000F0D7800446007841F20006C007C4F2A9
:10089000020644D0706800F00C00042817D070687D
:1008A00000F00C00082802D17068C0030FD46568FE
:1008B0002DB1B5F5A02F10D0B5F5803F11D030681F
:1008C00020F480303060306820F480200CE0306804
:1008D000800324D5606810BBABE0306840F4802012
:1008E0003060306840F480303060FFF711FE002D3A
:1008F000054611D03068800311D4FFF709FE401B74
:100900006428F7D916E100BFFFF702FE401B6428F8
:100910004FF0030000F28A8030688003F4D420781E
:10092000800718D5706810F00C0F07D0706800F0C1
:100930000C00082827D17068C00324D430688007D1
:1009400002D52069012874D13068616920F0F8006F
:1009500040EAC1003060207800074FD5A06940B35D
:100960000020C4F242200121C0F88014FFF7D0FD1E
:10097000054600BF706A80072DD4FFF7C9FD401BF4
:100980000228F7D9D6E02069002840F20000C4F21E
:10099000422000F0A68001210160FFF7B9FD054665
:1009A00030688007D0D4FFF7B3FD401B0228F7D989
:1009B000C0E00020C4F242200021C0F88014FFF7FC
:1009C000A7FD0546706A800718D5FFF7A1FD401BFB
:1009D0000228F7D9AEE040F20000C2F20000006841
:1009E00044F6D351C1F26201A0FB0101480A019013
:1009F00000BF0198411E00280191F9D120784007DD
:100A00001BD4E5698DB1706800F00C00082846D150
:100A1000012D0ED07068216A00F480328A4208D11C
:100A2000616A00F47010884203D1002002B0BDE872
:100A3000F081012002B0BDE8F081F06910F080582B
:100A400008D1F06940F08050F061F06900F080500A
:100A50000090009847F20007C4F200073868C0050C
:100A60000FD4386840F480703860FFF751FD0546B8
:100A70003868C00505D4FFF74BFD401B6428F7D943
:100A800058E0E5681DB1052D3CD0012D3ED0306AFF
:100A900020F001003062306A20F0040039E00027C5
:100AA000C4F2422700203866FFF732FD022D0546CA
:100AB0000CD100BF3068800154D5FFF729FD401BE1
:100AC00002284FF00300F5D9B0E700BF306880017D
:100AD000ABD5FFF71DFD401B02284FF00300F5D9F1
:100AE000A4E700210160FFF713FD05463068800789
:100AF0007FF531AFFFF70CFD401B02284FF00300DC
:100B0000F4D993E7306A40F004003062306A40F074
:100B100001003062FFF7FCFC002D054641F28837EA
:100B200014D000BF306A800713D4FFF7F1FC401BDC
:100B3000B842F7D9032002B0BDE8F081FFF7E8FC26
:100B4000401BB8424FF003003FF670AF306A800799
:100B5000F4D4B8F1000F7FF454AFF06920F0805066
:100B6000F0614EE7206AB0F5803F05D17168A26858
:100B700021F40031114371607168626A21F47411CB
:100B800011430843706001203866FFF7C1FC04463A
:100B9000306880013FF549AFFFF7BAFC001B02281F
:100BA0004FF00300F4D941E790F85100704700007E
:100BB00070B538B10446406A30B10020206104F1BC
:100BC000140007E0012070BD6068B0F5827F03D09B
:100BD00004F11C00002101600026A66294F8510077
:100BE00020B9204684F8506000F038F8022084F8DC
:100BF000510094E8071001F48271036802F4044282
:100C000023F040030360236911440CF40062114493
:100C100003F002026369114403F00102A369E5696C
:100C2000114403F40072114405F03802256A11449E
:100C300005F08002A56A114305F4005211430160DA
:100C4000042101EA13414160C16921F40061C161DD
:100C50000120666584F85100304670BD70B586B0DD
:100C600040F60004C4F20104006804F52051002697
:100C70008842049602D006B070BD00BF41F2180051
:100C8000C4F20200016802AD41F4805101600168C4
:100C900001F4805101910199016841F00401016062
:100CA0000068294600F0040001900198A0200290FD
:100CB00002200390032005902046FFF71BFB4020F5
:100CC000CDE90206204629460496FFF713FB06B03D
:100CD00070BD00002DE9F04381B0044640681D4618
:100CE0001746B0F5827F0E4602D1A06800285DD07D
:100CF00094F85000012803D1022001B0BDE8F08330
:100D00004FF0010984F85090FFF702FC94F851105D
:100D1000012949D18046002E4FF0010018BF002F55
:100D200000F09480042084F8510000206065A663E0
:100D3000A787E7872063A086E086A1682064B1F5D5
:100D4000004F606408D12068016821F04001016013
:100D5000016821F48041016020680168490603D4DC
:100D6000016841F040010160E168E08F59B300285B
:100D700045D06E1C0AE000BFC068A16B21F8020BD1
:100D8000A163E08F0138E087E08FC0B320688168FD
:100D9000C907F1D1FFF7BCFB002EF5D0A0EB08008E
:100DA000A842F1D3032051E002204FE0042084F850
:100DB00051002046314632463B46009500F00EF980
:100DC00001B0BDE8F083D0B16E1C0AE0007BA16BDE
:100DD0000870A06B0130A063E08F0138E087E08FDE
:100DE00068B120688168C907F0D1FFF791FB002E38
:100DF000F5D0A0EB0800A842F1D3032026E06068FC
:100E0000B0F5827F11D1A068B0F5004F02D0B0F5E7
:100E1000806F0AD12168B0F5806F0A6822F0400225
:100E20000A6002D12046012101E0204680212A46A5
:100E3000434600F0E5FC28B1606D40F0200060659D
:100E400020206065606D002818BF0120002184F813
:100E5000519084F8501001B0BDE8F0832DE9F043C3
:100E600081B0044690F85000012803D1022001B05F
:100E7000BDE8F0834FF001091D4616460F4684F881
:100E80005090FFF745FB94F8511001295BD1804643
:100E9000002F4FF0010018BF002E00F097800320B4
:100EA00084F85100002060652763A686E686A0636B
:100EB000A087E087A168C4E91000B1F5004F08D110
:100EC0002068016821F040010160016841F480411F
:100ED000016020680168490603D4016841F04001BF
:100EE00001606168731EE268B1FA81F1B3FA83F3BD
:100EF00049095B09B2F5006F41EA030125D131B11F
:100F000037F8021BC1602763E08E0138E086E08E6F
:100F1000002840D06E1C09E0216B31F8022BC26022
:100F20002163E08E0138E086E08EA0B320688168FE
:100F30008907F1D4FFF7ECFA002EF5D0A0EB0800FA
:100F4000A842F1D325E0022040E039B1397801739D
:100F5000206B01302063E08E0138E086E08ED0B156
:100F60006E1C0AE0216B09780173206B013020634D
:100F7000E08E0138E086E08E68B1206881688907DC
:100F8000F0D4FFF7C5FA002EF5D0A0EB0800A84278
:100F9000F1D303201AE0204680212A46434600F080
:100FA0002FFC28B1606D40F0200060652020606556
:100FB000A06838B9002000902068C168009180685E
:100FC00000900098606D002818BF0120002184F86F
:100FD000519084F8501001B0BDE8F0832DE9F04342
:100FE00081B0044690F85000012803D1022001B0DE
:100FF000BDE8F08301201E4615460F4684F85000D8
:10100000FFF786FA94F85110814601296AD1002F22
:101010004FF0010018BF002D71D0002E6FD094F852
:101020005100002104281CBF052084F8510061658F
:10103000A563E687A6872763E6862068A6862164DF
:1010400061640168490603D4016841F04001016010
:101050006168731EE268B1FA81F1B3FA83F3DDF8D7
:10106000208049095B09B2F5006F41EA03014FD1C5
:1010700031B137F8021BC1602763E08E0138E0868A
:10108000012608F1010500BFE08E10B9E08F0028AD
:101090007AD02068816889070CD5E18E51B1012E84
:1010A00008D1216B002631F8022BC2602163E18E4A
:1010B0000139E1868168C9070AD0E18F41B1C06872
:1010C000A16B012621F8020BA163E08F0138E087B4
:1010D000FFF71EFA002DD7D0A0EB09004045D3D36F
:1010E00003200CE06068B0F5827F07D1A06800287B
:1010F0004FF0020008BF042901D188E70220012136
:1011000084F85110002184F8501001B0BDE8F0833C
:1011100039B139780173206B01302063E08E0138DA
:10112000E086012608F10105E08E08B9E08F58B38A
:101130002068816889070DD5E18E59B1012E09D14A
:10114000216B002609780173206B01302063E08E4B
:101150000138E08620688168C9070BD0E18F49B16A
:10116000C068A16B01260870A06B0130A063E08FFE
:101170000138E087FFF7CCF9002DD5D0A0EB0900AE
:101180004045D1D30320BAE72046802142464B4652
:1011900000F036FB38B1606D40F020006065202023
:1011A00060650120ABE7A06800284FF00000A6D1E1
:1011B00000902168CA6800928968009100999EE7B2
:1011C000411E0020B0EB116F1CBF012070474EF292
:1011D0001002CEF2000251604EF62351CEF2000111
:1011E000F0230B70072190601160704710B590F8E4
:1011F0003C20012A4FF0020231D0012380F83C301C
:1012000080F83D200268D2F804E0D2F808C00C68EB
:101210002EF07003234340F2FF74C4F20004A24294
:10122000536005DCB2F1804F0ED040F2004307E07E
:1012300042F60043C4F201039A4205D040F600038F
:10124000C4F200039A4204D149682CF08003194388
:1012500091600121002280F83D1080F83C2010466A
:1012600010BD0000002804BF0120704710B50446DF
:1012700090F83D0028B9002084F83C00204600F09A
:101280005DF8022084F83D00206840F2FF73026898
:10129000C4F2000342F6004C9842C4F2010C05DC93
:1012A000B0F1804F0AD040F2004103E0604505D024
:1012B00040F60001C4F20001884203D1A16822F087
:1012C00070020A43984205DCB0F1804F0AD040F228
:1012D000004103E0604505D040F60001C4F2000182
:1012E000884203D1216922F440720A43A36922F0A3
:1012F0008001D4F804E0E268194360450160C262ED
:10130000C0F828E002D16169CCF8301001214161B8
:10131000002084F8461084F83E1084F83F1084F8CA
:10132000401084F8411084F8421084F8431084F887
:10133000441084F8451084F83D1010BD81B0006859
:1013400040F60001C4F20001884201D001B07047AC
:1013500041F21C00C4F20200016841F00401016086
:10136000006800F004000090009801B07047000091
:1013700090F83D1001291CBF01207047022180F820
:101380003D10006840F2FF71C4F20001884205DCA4
:10139000B0F1804F0ED040F2004107E042F600412C
:1013A000C4F20101884205D040F60001C4F20001F8
:1013B000884206D1816801F00701062904BF002098
:1013C0007047016841F00101016000207047000092
:1013D00080B590F83C20012A4FF0020200F0C08056
:1013E000012380F83C3080F83D20D0F800C04FF653
:1013F0007772DCF8083023EA0202CCF808200B6888
:101400003F2B1CDD5F2B20DD602B4FD0B3F5005F41
:101410006CD0702B40F09E80D1E901E3C968DCF804
:10142000082043EA0E0322F47F4243EA01211143DC
:10143000CCF80810DCF8081041F0770188E01F2B89
:1014400028DC5BB3102B29D084E0402B61D0502BDB
:1014500040F08080D1F804E0C968DCF82030DCF886
:10146000202022F00102CCF82020DCF8182022F005
:10147000F00242EA011123F00A0242EA0E02CCF81D
:101480001810CCF82020DCF8081041F0570121F0AA
:1014900020015DE0202B01D0302B5BD1DCF808105F
:1014A00021F07001194341F0070151E0D1F804E047
:1014B000C968DCF8203023F01003CCF82030DCF8C9
:1014C0001830DCF8202023F4704322F0A00243EA15
:1014D000013142EA0E12CCF81810CCF82020DCF8CA
:1014E000081041F0670121F0100131E0D1E901E37A
:1014F000C968DCF8082043EA0E0322F47F4243EA7D
:1015000001211143CCF80810DCF8081041F48041A7
:101510001EE0D1F804E0C968DCF82030DCF82020B7
:1015200022F00102CCF82020DCF8182022F0F00292
:1015300042EA011123F00A0242EA0E02CCF8181026
:10154000CCF82020DCF8081041F0470121F03001F0
:10155000CCF808100121002280F83D1080F83C20D2
:10156000104680BD002804BF0120704710B5044616
:1015700090F83D0028B9002084F83C00204600F097
:1015800061F8242084F83D002068D4E90212C36881
:1015900023F40053C360036923F440531A430261E8
:1015A000D4E904231143C268194341F20C639A43FE
:1015B0001143C1604169A26921F44071114343F6AE
:1015C0000002C4F201029042416102D0FFF72CF9FF
:1015D00001E0FFF73DF96268192148439100B0FB33
:1015E000F1F048F21F51C5F2EB11A0FB01235A099B
:1015F0004FF69C73C0F6FF7302FB0300322303EB2C
:101600000010A0FB0101F02303EA5113206803EB53
:101610000212C1F3431111448160016921F4904128
:101620000161416921F02A014161C16841F4005121
:10163000C16000202021206484F83D1084F83E1011
:1016400010BD000070B586B040F60004C4F201047D
:10165000006804F5405100268842049602D006B086
:1016600070BD00BF41F21800C4F20200016802AD73
:1016700041F480410160016801F4804101910199C8
:10168000016841F0040101600068294600F004008F
:10169000019001984FF40070029002200390032003
:1016A00005902046FEF726FE4FF48060CDE9020645
:1016B000204629460496FEF71DFE06B070BD0000C8
:1016C0002DE9F04381B0044690F83D0020280DD16B
:1016D0000D4600294FF0010000F086801646002AD2
:1016E00000F0828094F83C00012803D1022001B070
:1016F000BDE8F083012084F83C0000202064212014
:10170000984684F83D00FEF703FFA684E684A168AE
:101710008146B1F5805F01D1206910B12F460025C7
:1017200000E00027002084F83C00E08C58B308F16A
:10173000010609E097B117F8010B21684860E08CB9
:101740000138E084E08CF0B1206800680006F1D434
:10175000BEB1B8F1000F0ED120E000BF35F8020B8A
:1017600021686FF35F2048600027E8E701680906F9
:10177000E0D4002EFAD0FEF7CBFEA0EB09004045E6
:101780000CD82068F2E720680068400628D4B8F139
:10179000000F03D018F1010515D01AE02068C168C8
:1017A00021F4D071C160416921F001014161202023
:1017B00084F83D0084F83E00002084F83C000320BB
:1017C00001B0BDE8F08320680168490608D4002D07
:1017D000FAD0FEF79DFEA0EB09004045F3D9DDE706
:1017E000202084F83D00002001B0BDE8F083000017
:1017F000FEE70000FEE700007047000070470000B1
:101800002DE9F04381B01E4690460D468146FEF715
:101810007FFE301A00EB0807FEF77AFE40F2000167
:10182000C2F200010968C1F3CB3179430091D9F8C4
:10183000001089682940A94219D1064608F101041F
:1018400006E000BFD9F8000080682840A8420ED109
:10185000002CF7D0FEF75CFE801BB8420BD200983C
:101860000099002808BF0746481E0090EAE70020BC
:1018700001B0BDE8F083D9E900014268B1F5827F8B
:1018800022F0E00242600BD1D9F80810B1F5004F08
:1018900002D0B1F5806F03D1016821F040010160F1
:1018A000D9F82810B1F5005F07D1016821F4005183
:1018B0000160016841F400510160012089F8510084
:1018C000002089F85000032001B0BDE8F08300003B
:1018D00070470000FEF722BE70470000FEE70000E0
:1018E000F0B585B0202040F6004401900120C4F2FC
:1018F0000104029002200026049001A920460396CC
:10190000FEF7F8FC204620210022FEF7FBFD40F206
:10191000F805C2F200052868466200BF416A052941
:1019200008D8416A052905D8416A052902D8416AC3
:101930000629F3D32046202101222026FEF7E2FDCE
:10194000002701A92046CDE90167CDE90377FEF71D
:10195000D1FC2868476200BF416A082908D8416A5B
:10196000082905D8416A082902D8416A0929F3D310
:1019700020462021FEF7C0FD296800224A6200BFF0
:101980004A6A362A08D84A6A362A05D84A6A362A5E
:1019900002D84A6A372AF3D305B0F0BDF0B585B056
:1019A000202040F6004401900120C4F2010402907E
:1019B00002200026049001A920460396FEF79AFC17
:1019C000204620210022FEF79DFD40F2F805C2F2DC
:1019D00000052868466200BF416A49090E290BD8F4
:1019E000416A49090E2907D8416A49090E2903D8D5
:1019F000416AB1F5F07FEFD3204620210122202655
:101A0000FEF780FD002701A92046CDE90167CDE959
:101A10000377FEF76FFC2868476200BF416A4529DB
:101A200008D8416A452905D8416A452902D8416A42
:101A30004629F3D320462021FEF75EFD29680022C7
:101A40004A6200BF4A6A5208CC2A0BD84A6A520836
:101A5000CC2A07D84A6A5208CC2A03D84A6AB2F577
:101A6000CD7FEFD305B0F0BDB0B50168044648683E
:101A700009880022FEF746FD0A20FEF727FC2168B0
:101A80000122486809880125FEF73CFD0A20FEF77F
:101A90001DFC2046422100F0B1F8122840F0A18040
:101AA00020460121802200F083F9207943F2584139
:101AB000C0F6000101EBC002526851F83000D104B9
:101AC00044F6000241EA5031C004C0F2E81200239B
:101AD000FEF728FB0546C0F307422046062100F02A
:101AE00067F9C5F307222046072100F061F9EAB241
:101AF0002046082100F05CF920463921342200F00C
:101B000057F9607938A10A5C2046092100F050F9A4
:101B100020460B210B2200F04BF920460C212322FA
:101B200000F046F9227AE17933A330A09A5CA379D8
:101B3000405C510001EB0010C3B1C2B220461D2130
:101B400000F036F9617A43F27842C0F60002A079DB
:101B5000515C43F23A42C0F60002105C890001EB8E
:101B60000010C2B220461E2124E000BF40F0010058
:101B7000C2B220461D2100F01BF9617A43F278427F
:101B8000C0F60002A079515C43F23A42C0F600026E
:101B9000105C890001EB00100330C2B220461E2108
:101BA00000F006F920463121052200F001F9204617
:101BB00037210C2200F0FCF820460E2100220025DF
:101BC00000F0F6F820460F21002200F0F1F8204640
:101BD0002621042200F0ECF820460121812200F0A9
:101BE000E7F82846B0BD00BFFFFCF9F6000102038C
:101BF00004050607080900000102030410B582B0BD
:101C0000044601F07F0021688DF807000022486932
:101C1000098A8DF806200022FEF774FC20680DF179
:101C20000701806901224FF47A73FFF717F900BFAB
:101C300020688069FEF7B8FF0128F9D120680DF10E
:101C40000601806901224FF47A73FFF743F800BF61
:101C500020688069FEF7A8FF0128F9D121680122D8
:101C60004869098AFEF74EFC9DF8060002B010BDD7
:101C70002DE9F04782B0884622219946164604464F
:101C8000FFF7BCFF82463044FF2888BF6FEA0A0690
:101C9000F5B24DB1A8F1010717F8012F2046002138
:101CA00000F086F8013DF7D106EB0A00C2B22046EB
:101CB000222100F07DF820460121832200F078F8EF
:101CC000204612214FF01208FFF798FF00074AD470
:101CD0004FF0000A0DF107060DF106074D460BE027
:101CE00020460121832200F063F820461221FFF7ED
:101CF00085FF00074D4636D4002DF1D00120FEF7B8
:101D0000E5FA216800224869098A8DF807808DF874
:101D100006A0FEF7F7FB20683146806901224FF4E8
:101D20007A73FFF79BF800BF20688069FEF73CFFDD
:101D30000128F9D120683946806901224FF47A736D
:101D4000FEF7C8FF20688069FEF72EFF0128F9D151
:101D5000216801224869098A013DFEF7D3FB9DF8FD
:101D600006000007C8D520461221082200F020F8FE
:101D700002B0BDE8F0870000B0B50121044601259E
:101D8000FFF73CFF00F0030003280FD0204601219D
:101D9000812200F00DF820460D210022002500F0E0
:101DA00007F820462221002200F002F82846B0BDA4
:101DB00010B582B08DF807200268044641F0800318
:101DC0005069118A00228DF80630FEF79BFB2068CF
:101DD0000DF10601806901224FF47A73FFF73EF896
:101DE00020688069FEF7E0FE0128F9D120680DF136
:101DF0000701806901224FF47A73FFF72FF800BFC3
:101E000020688069FEF7D0FE0128F9D121680122FF
:101E10004869098AFEF776FB02B010BD96B040F61D
:101E20000049C4F20109FEF787FB00244FF480301B
:101E30000225CDE90D04CDE913504FF4E010012740
:101E400015900CA8CDE91144CDE90F440C971097DB
:101E5000FEF712FD0F20CDE906054FF48060CDE9B5
:101E6000090406A802210894FEF700FC41F21800BC
:101E7000C4F202000168002241F020010160016803
:101E800040F2232601F020010C910C99016841F0E9
:101E900004010160016801F004010C910C990168D2
:101EA00041F008010160006840F2232100F00800C1
:101EB0000C900C984846FEF725FB0CA94846CDE946
:101EC0000C67CDE90E45FEF715FA40F2F806A9F5C4
:101ED0008230C2F2000647214FF6FF7286E81300F7
:101EE00030460F94CDE90D44CDE90644C6E90324FC
:101EF000B461FFF7B7F94FF480500CAD0C90304649
:101F00002946FFF765FA06A93046FFF76FF940F258
:101F1000401809F53050C2F200084FF416510C2257
:101F200088E813004046C8E90344C8E90524C8F816
:101F30001C40FFF717FB40F2A00009F51051C2F258
:101F400000004FF482724FF40073282780E81600D7
:101F50000A21C0E90344C0E90543C761C0E9084458
:101F6000C0E90A41FEF724FE3046FFF701FADFF828
:101F7000380440F2100A0C900FF22C40071DD0E9F3
:101F80000560C2F2000A129040F20010C0F2017027
:101F90000790DFF830048ECF069555460DF1340CCE
:101FA00045F8100F0FF21C408CE88E00ADF8204071
:101FB000071D4469008B8ECF05F1040C2883284649
:101FC00011960A268CE88E006C61FEF7DCF882B26E
:101FD000404629464FF47A73FFF772FB06A8FFF7D5
:101FE00043FD00284DD040F2401442F6616B44F6A8
:101FF000204846F25719C2F20004C2F62E6BC7F20F
:102000006F28C7F2694906AD46F64C705746C6F2CE
:10201000521047F8100F44F22060C6F66110786045
:1020200046F26C50C0F66450B8603846BE81FEF788
:10203000AAF882B2204639464FF47A73FFF740FB84
:102040004FF47A70FEF742F940F62E50C0F20A00C3
:10205000C7F80B003846C7E90098C7F808B0FEF784
:1020600092F882B2204639464FF47A73FFF728FB84
:102070004FF47A70FEF72AF92846FFF7F5FC00289E
:10208000C2D14FF47A70FEF721F9D5A1D1E90454F9
:102090000F1DDFF84CC38CCF8869CAE90854898BBF
:1020A00040F60045C4F20105CAE904C2CAF8280096
:1020B000AAF82C1028464FF400710022CAE906370E
:1020C000FEF720FA64204FF06408FEF7FFF8284678
:1020D0004FF400710122FEF715FA6420FEF7F6F8BE
:1020E00028464FF400710022FEF70CFA6420FEF738
:1020F000EDF828464FF400710122FEF703FA642040
:10210000FEF7E4F828464FF400710022FEF7FAF9D2
:102110006420FEF7DBF828464FF400710122FEF739
:10212000F1F96420FEF7D2F828464FF4007100223E
:10213000FEF7E8F96420FEF7C9F828464FF400716D
:102140000122FEF7DFF96420FEF7C0F840F24017E5
:102150000AF104040AF106060AF1080BC2F20007AC
:102160004FF000090594CDE903B600BF5FFA89F28C
:1021700028464FF40071FEF7C5F94046FEF7A6F871
:1021800000F03EF9FEF70BF80109CAB2CD235A431D
:10219000CAF80C00D20A00F00F0002EB820300EB39
:1021A000800043F286488AF80010A1EB4301C00882
:1021B000C0F600088AF802108AF80300204641465B
:1021C0008AF8012001F022F89AF8022030464146B0
:1021D00001F01CF89AF803205846414601F016F821
:1021E00038462146012264234FF00109FFF768FABF
:1021F0000120FEF76BF83846314601226423FFF7D1
:102200005FFA0120FEF762F838465946012264233E
:10221000FFF756FA9AF8020040F260089AF8013087
:102220009AF803C0C2F2000843F27A4143F2304206
:1022300000904046C0F60001C0F60002CDF804C090
:1022400000F0E4FF0DF1180B5846FFF795FD5846D6
:10225000DDE903B6059C41460E226423FFF708FD25
:102260009AF801000022032828464FF4007138BF75
:102270000122FEF747F94FF47A704FF47A78FEF7AF
:1022800025F89AF8010003283FF670AF4FF47A70F2
:102290004FF47A78FEF71AF800F0B2F8FDF77FFFF6
:1022A0000109CAB2CD235A43CAF80C00D20A00F081
:1022B0000F0002EB820300EB800043F286458AF8B0
:1022C0000010A1EB4301C008C0F600058AF8021017
:1022D0008AF80300204629468AF8012000F096FF7C
:1022E0009AF802203046294600F090FF9AF8032021
:1022F0005846294600F08AFF3846214601226423C9
:10230000FFF7DEF90120FDF7E1FF384631460122F3
:102310006423FFF7D5F90120FDF7D8FF3846594669
:1023200001226423FFF7CCF99AF802009AF80350CF
:1023300040F2600B9AF80130C2F2000B43F27A418E
:1023400043F2304200905846C0F60001C0F6000249
:10235000019540F60045C4F2010500F057FF0DF16C
:1023600018094846FFF708FD48465946DDE903B617
:10237000059C0E226423FFF77BFC9AF801000022E3
:10238000032828464FF4007138BF0122FEF7BAF83F
:102390004FF47A70FDF79AFF9AF8010003287FF650
:1023A00075AF4FF00109E1E602000000000C0140AA
:1023B000000000000000000001000000000C0140CF
:1023C000A0000020436F6E6669677572696E6720B2
:1023D0004C6F5261206D6F64756C650D0A000000D2
:1023E000446F6E6520636F6E6669677572696E67AC
:1023F000204C6F52614D6F64756C650D0A000000D2
:102400002DE9F04F85B000BFFFF7C8FA0028FBD1D7
:10241000202040F6004401900120C4F20104029003
:1024200002200026049001A920460396FDF762FFD2
:10243000204620210022FEF765F840F2F805C2F29E
:1024400000052868466200BF416A3B2908D8416AF6
:102450003B2905D8416A3B2902D8416A3C29F3D37C
:10246000204620210122FEF74DF828680021416214
:10247000416A092908D8416A092905D8416A092908
:1024800002D8416A0A29F3D320200190012002904A
:1024900002200026049001A920460396FDF72AFF9A
:1024A000204620210022FEF72DF82868466200BF52
:1024B000416A3B2908D8416A3B2905D8416A3B2932
:1024C00002D8416A3C29F3D3204620210122FEF79D
:1024D00019F8286800214162416A092908D8416A2F
:1024E000092905D8416A092902D8416A0A29F3D382
:1024F000202001900120029002200026049001A9D2
:1025000020460396FDF7F6FE204620210022FDF727
:10251000F9FF2868466200BF416A052908D8416A68
:10252000052905D8416A052902D8416A0629F3D34D
:10253000204620210122FDF7E5FF286800214162A5
:10254000416A3F2908D8416A3F2905D8416A3F2995
:1025500002D8416A4029F3D3202001900120029043
:1025600002200026049001A920460396FDF7C2FE32
:10257000204620210022FDF7C5FF2868466200BFE3
:10258000416A052908D8416A052905D8416A052903
:1025900002D8416A0629F3D3204620210122FDF703
:1025A000B1FF286800214162416A3F2908D8416A89
:1025B0003F2905D8416A3F2902D8416A4029F3D30F
:1025C000202001900120029002200026049001A901
:1025D00020460396FDF78EFE204620210022FDF7BF
:1025E00091FF2868466200BF416A3B2908D8416ACA
:1025F0003B2905D8416A3B2902D8416A3C29F3D3DB
:10260000204620210122FDF77DFF2868002141623C
:10261000416A092908D8416A092905D8416A092966
:1026200002D8416A0A29F3D32020019001200290A8
:1026300002200026049001A920460396FDF75AFEC9
:10264000204620210022FDF75DFF2868466200BF7A
:10265000416A3B2908D8416A3B2905D8416A3B2990
:1026600002D8416A3C29F3D3204620210122FDF7FC
:1026700049FF286800214162416A092908D8416A56
:10268000092905D8416A092902D8416A0A29F3D3E0
:10269000202001900120029002200026049001A930
:1026A00020460396FDF726FE204620210022FDF756
:1026B00029FF2868466200BF416A052908D8416A97
:1026C000052905D8416A052902D8416A0629F3D3AC
:1026D000204620210122FDF715FF286800214162D4
:1026E000416A3F2908D8416A3F2905D8416A3F29F4
:1026F00002D8416A4029F3D32020019001200290A2
:1027000002200026049001A920460396FDF7F2FD61
:10271000204620210022FDF7F5FE2868466200BF12
:10272000416A052908D8416A052905D8416A052961
:1027300002D8416A0629F3D3204620210122FDF761
:10274000E1FE286800214162416A3F2908D8416AB8
:102750003F2905D8416A3F2902D8416A4029F3D36D
:10276000202001900120029002200026049001A95F
:1027700020460396FDF7BEFD204620210022FDF7EE
:10278000C1FE2868466200BF416A3B2908D8416AF9
:102790003B2905D8416A3B2902D8416A3C29F3D339
:1027A000204620210122FDF7ADFE2868002141626C
:1027B000416A092908D8416A092905D8416A0929C5
:1027C00002D8416A0A29F3D3202001900120029007
:1027D00002200026049001A920460396FDF78AFDF9
:1027E000204620210022FDF78DFE2868466200BFAA
:1027F000416A3B2908D8416A3B2905D8416A3B29EF
:1028000002D8416A3C29F3D3204620210122FDF75A
:1028100079FE286800214162416A092908D8416A85
:10282000092905D8416A092902D8416A0A29F3D33E
:10283000202001900120029002200026049001A98E
:1028400020460396FDF756FD204620210022FDF785
:1028500059FE2868466200BF416A052908D8416AC6
:10286000052905D8416A052902D8416A0629F3D30A
:10287000204620210122FDF745FE28680021416203
:10288000416A3F2908D8416A3F2905D8416A3F2952
:1028900002D8416A4029F3D3202001900120029000
:1028A00002200026049001A920460396FDF722FD90
:1028B000204620210022FDF725FE2868466200BF41
:1028C000416A3B2908D8416A3B2905D8416A3B291E
:1028D00002D8416A3C29F3D3204620210122FDF78A
:1028E00011FE286800214162416A092908D8416A1D
:1028F000092905D8416A092902D8416A0A29F3D36E
:10290000202001900120029002200026049001A9BD
:1029100020460396FDF7EEFC204620210022FDF71D
:10292000F1FD2868466200BF416A3B2908D8416A28
:102930003B2905D8416A3B2902D8416A3C29F3D397
:10294000204620210122FDF7DDFD2868002141629B
:10295000416A092908D8416A092905D8416A092923
:1029600002D8416A0A29F3D3202001900120029065
:1029700002200026049001A920460396FDF7BAFC28
:10298000204620210022FDF7BDFD2868466200BFD9
:10299000416A3B2908D8416A3B2905D8416A3B294D
:1029A00002D8416A3C29F3D3204620210122FDF7B9
:1029B000A9FD286800214162416A092908D8416AB5
:1029C000092905D8416A092902D8416A0A29F3D39D
:1029D000202001900120029002200026049001A9ED
:1029E00020460396FDF786FC204620210022FDF7B5
:1029F00089FD2868466200BF416A052908D8416AF6
:102A0000052905D8416A052902D8416A0629F3D368
:102A1000204620210122FDF775FD28680021416232
:102A2000416A3F2908D8416A3F2905D8416A3F29B0
:102A300002D8416A4029F3D320200190012002905E
:102A400002200026049001A920460396FDF752FCBF
:102A5000204620210022FDF755FD2868466200BF70
:102A6000416A3B2908D8416A3B2905D8416A3B297C
:102A700002D8416A3C29F3D3204620210122FDF7E8
:102A800041FD286800214162416A092908D8416A4C
:102A9000092905D8416A092902D8416A0A29F3D3CC
:102AA0005E20FDF713FC00BFFEF778FF0028FBD186
:102AB000202001900120029002200026049001A90C
:102AC00020460396FDF716FC204620210022FDF744
:102AD00019FD2868466200BF416A3B2908D8416A4F
:102AE0003B2905D8416A3B2902D8416A3C29F3D3E6
:102AF000204620210122FDF705FD286800214162C2
:102B0000416A092908D8416A092905D8416A092971
:102B100002D8416A0A29F3D32020019001200290B3
:102B200002200026049001A920460396FDF7E2FB4F
:102B3000204620210022FDF7E5FC2868466200BF00
:102B4000416A3B2908D8416A3B2905D8416A3B299B
:102B500002D8416A3C29F3D3204620210122FDF707
:102B6000D1FC286800214162416A092908D8416ADC
:102B7000092905D8416A092902D8416A0A29F3D3EB
:102B8000202001900120029002200026049001A93B
:102B900020460396FDF7AEFB204620210022FDF7DC
:102BA000B1FC2868466200BF416A052908D8416A1D
:102BB000052905D8416A052902D8416A0629F3D3B7
:102BC000204620210122FDF79DFC2868002141625A
:102BD000416A3F2908D8416A3F2905D8416A3F29FF
:102BE00002D8416A4029F3D32020019001200290AD
:102BF00002200026049001A920460396FDF77AFBE7
:102C0000204620210022FDF77DFC2868466200BF97
:102C1000416A052908D8416A052905D8416A05296C
:102C200002D8416A0629F3D3204620210122FDF76C
:102C300069FC286800214162416A3F2908D8416A3D
:102C40003F2905D8416A3F2902D8416A4029F3D378
:102C5000202001900120029002200026049001A96A
:102C600020460396FDF746FB204620210022FDF773
:102C700049FC2868466200BF416A3B2908D8416A7E
:102C80003B2905D8416A3B2902D8416A3C29F3D344
:102C9000204620210122FDF735FC286800214162F1
:102CA000416A092908D8416A092905D8416A0929D0
:102CB00002D8416A0A29F3D3202001900120029012
:102CC00002200026049001A920460396FDF712FB7E
:102CD000204620210022FDF715FC2868466200BF2F
:102CE000416A3B2908D8416A3B2905D8416A3B29FA
:102CF00002D8416A3C29F3D3204620210122FDF766
:102D000001FC286800214162416A092908D8416A0A
:102D1000092905D8416A092902D8416A0A29F3D349
:102D2000202001900120029002200026049001A999
:102D300020460396FDF7DEFA204620210022FDF70B
:102D4000E1FB2868466200BF416A052908D8416A4C
:102D5000052905D8416A052902D8416A0629F3D315
:102D6000204620210122FDF7CDFB28680021416289
:102D7000416A3F2908D8416A3F2905D8416A3F295D
:102D800002D8416A4029F3D320200190012002900B
:102D900002200026049001A920460396FDF7AAFA16
:102DA000204620210022FDF7ADFB2868466200BFC7
:102DB000416A052908D8416A052905D8416A0529CB
:102DC00002D8416A0629F3D3204620210122FDF7CB
:102DD00099FB286800214162416A3F2908D8416A6D
:102DE0003F2905D8416A3F2902D8416A4029F3D3D7
:102DF000202001900120029002200026049001A9C9
:102E000020460396FDF776FA204620210022FDF7A2
:102E100079FB2868466200BF416A3B2908D8416AAD
:102E20003B2905D8416A3B2902D8416A3C29F3D3A2
:102E3000204620210122FDF765FB28680021416220
:102E4000416A092908D8416A092905D8416A09292E
:102E500002D8416A0A29F3D3202001900120029070
:102E600002200026049001A920460396FDF742FAAD
:102E7000204620210022FDF745FB2868466200BF5E
:102E8000416A052908D8416A052905D8416A0529FA
:102E900002D8416A0629F3D3204620210122FDF7FA
:102EA00031FB286800214162416A3F2908D8416A04
:102EB0003F2905D8416A3F2902D8416A4029F3D306
:102EC000202001900120029002200026049001A9F8
:102ED00020460396FDF70EFA204620210022FDF73A
:102EE00011FB2868466200BF416A052908D8416A7B
:102EF000052905D8416A052902D8416A0629F3D374
:102F0000204620210122FDF7FDFA286800214162B8
:102F1000416A3F2908D8416A3F2905D8416A3F29BB
:102F200002D8416A4029F3D3202001900120029069
:102F300002200026049001A920460396FDF7DAF945
:102F4000204620210022FDF7DDFA2868466200BFF6
:102F5000416A052908D8416A052905D8416A052929
:102F600002D8416A0629F3D3204620210122FDF729
:102F7000C9FA286800214162416A3F2908D8416A9C
:102F80003F2905D8416A3F2902D8416A4029F3D335
:102F9000202001900120029002200026049001A927
:102FA00020460396FDF7A6F9204620210022FDF7D2
:102FB000A9FA2868466200BF416A052908D8416A13
:102FC000052905D8416A052902D8416A0629F3D3A3
:102FD000204620210122FDF795FA28680021416250
:102FE000416A3F2908D8416A3F2905D8416A3F29EB
:102FF00002D8416A4029F3D3202001900120029099
:1030000002200026049001A920460396FDF772F9DC
:10301000204620210022FDF775FA2868466200BF8D
:10302000416A052908D8416A052905D8416A052958
:1030300002D8416A0629F3D3204620210122FDF758
:1030400061FA286800214162416A3F2908D8416A33
:103050003F2905D8416A3F2902D8416A4029F3D364
:10306000202001900120029002200026049001A956
:1030700020460396FDF73EF9204620210022FDF769
:1030800041FA2868466200BF416A3B2908D8416A74
:103090003B2905D8416A3B2902D8416A3C29F3D330
:1030A000204620210122FDF72DFA286800214162E7
:1030B000416A092908D8416A092905D8416A0929BC
:1030C00002D8416A0A29F3D32020019001200290FE
:1030D00002200026049001A920460396FDF70AF974
:1030E000204620210022FDF70DFA2868466200BF25
:1030F000416A052908D8416A052905D8416A052988
:1031000002D8416A0629F3D3204620210122FDF787
:10311000F9F9286800214162416A3F2908D8416ACB
:103120003F2905D8416A3F2902D8416A4029F3D393
:10313000FEF7D6FB0446FEF7D3FB4FF0400808EA43
:10314000841141EAC014FEF7CBFB4FF0600909EA95
:10315000540141EAC014FEF7C3FB4FF0700A0AEABB
:10316000540141EAC014FEF7BBFB4FF0780B0BEAA9
:10317000540141EAC014FEF7B3FB7C2606EA540171
:1031800041EAC014FEF7ACFB7E2707EA540141EA8E
:10319000C014FEF7A5FBC4F3460141EAC010C5B256
:1031A000FEF79EFB0446FEF79BFB08EA841141EA0A
:1031B000C014FEF795FB09EA540141EAC014FEF77A
:1031C0008FFB0AEA540141EAC014FEF789FB0BEABF
:1031D000540141EAC014FEF783FB06EA540141EAB8
:1031E000C014FEF77DFB07EA540141EAC014FEF764
:1031F00077FBC4F3460141EAC010C0B245EA0020A3
:10320000FCF7C8FF05B0BDE8F08F00000FB4084B15
:1032100010B504A902AA039800F01CF8044602A9FC
:10322000002000F0F3F8204610BC5DF814FB00000D
:103230000D34000802E008C8121F08C1002AFAD1A4
:1032400070477047002001E001C1121F002AFBD126
:10325000704700002DE9FF4F8BB09A460F46054698
:10326000002606E025280BD052460D9990476D1C8C
:10327000761C28780028F5D10FB03046BDE8F08FD5
:103280000024A0460122604900E0044315F8013FF4
:10329000203B02FA03F00842F7D128782E2817D1F4
:1032A00015F8010F44F004042A280ED06FF02F0205
:1032B0002878A0F1300109290AD808EB880102EB2F
:1032C000410100EB01086D1CF2E757F8048B6D1CFF
:1032D000287869283ED006DC0028CDD063280BD0A2
:1032E000642804D136E0732810D075284BD052469C
:1032F0000D999047761C85E017F8040B8DF80000B7
:1033000000208DF80100E946012003E057F8049BF6
:103310004FF0FF3061074FF0000401D40AE0641C55
:1033200044450DDA8442FADB19F804100029F6D17D
:1033300006E0641C8442FCDB19F804100029F8D173
:10334000264404E019F8010B52460D999047641E7B
:10335000F8D257E001CF4FF00A0B002802DA4042C2
:103360002D2102E0210504D52B218DF82410012107
:1033700003E0E10705D02021F7E70DF120090891CE
:103380000CE00021F9E701CF4FF00A0BF9E75946AD
:10339000FCF719FF01F1300209F8012D0028F6D1E0
:1033A000ADEB090000F1200B600701D44FF00108DC
:1033B000D84502DDA8EB0B0000E000208046002489
:1033C00006E009A85246005D0D999047641C761CE2
:1033D00008988442F5DB04E0302052460D9990476E
:1033E000761CB8F10001A8F10108F5DC05E019F838
:1033F000010B52460D999047761CBBF10001ABF1D1
:10340000010BF4DC6D1C34E7092801000A68531C29
:103410000B60107070470102000000000000000007
:10342000010203040607080900000000010203046A
:1034300031313131313131312000060708090A0BB1
:103440000C02030405060708090A0B0C0D0E0F10E9
:103450001000000000000000400ECF190000000026
:1034600040DA8E3300000000801C9E330000000014
:10347000C05EAD33000000000100257325642564A3
:103480002C25642A4300256400000000B0340008A5
:10349000000000201000000034320008C034000892
:1034A00010000020780500004432000800000000F1
:1034B0000024F400010000001000000000000000E3
:04000005080000ED02
:00000001FF
